{
  "transactions": [
    {
      "hash": "0xba1e226e758d6ae56d8882a0856db5ec4bcac5bd0ad0060cbbd9758818c7e769",
      "transactionType": "CALL",
      "contractName": null,
      "contractAddress": "0xa738be23d3086baf9ace930ff360bc6325731c22",
      "function": "setPeer(uint32,bytes32)",
      "arguments": [
        "40161",
        "0x000000000000000000000000ae650ec03e807e640580540d7c2df615badf7c22"
      ],
      "transaction": {
        "from": "0x493e5f174b58852c6ac39c98788b8e3548e38cb0",
        "to": "0xa738be23d3086baf9ace930ff360bc6325731c22",
        "gas": "0x104a9",
        "value": "0x0",
        "input": "0x3400288b0000000000000000000000000000000000000000000000000000000000009ce1000000000000000000000000ae650ec03e807e640580540d7c2df615badf7c22",
        "nonce": "0x7",
        "chainId": "0x4268"
      },
      "additionalContracts": [],
      "isFixedGasLimit": false
    },
    {
      "hash": "0x371aa9783b260082f73c503ee563ddcd25f50b0f57af998682a86b913be6fc0a",
      "transactionType": "CALL",
      "contractName": null,
      "contractAddress": "0xd60f72149bcb6ecb00c7f0d0bd8f686b0ec15e64",
      "function": "approve(address,uint256)",
      "arguments": [
        "0xA738be23d3086bAf9ace930ff360Bc6325731C22",
        "1000000000000000000"
      ],
      "transaction": {
        "from": "0x493e5f174b58852c6ac39c98788b8e3548e38cb0",
        "to": "0xd60f72149bcb6ecb00c7f0d0bd8f686b0ec15e64",
        "gas": "0x10c1a",
        "value": "0x0",
        "input": "0x095ea7b3000000000000000000000000a738be23d3086baf9ace930ff360bc6325731c220000000000000000000000000000000000000000000000000de0b6b3a7640000",
        "nonce": "0x8",
        "chainId": "0x4268"
      },
      "additionalContracts": [],
      "isFixedGasLimit": false
    },
    {
      "hash": "0x153e8953c18fd71a7020ca5d1ec793362126114a0f67ad9ad85a4b7bd6c5522d",
      "transactionType": "CALL",
      "contractName": null,
      "contractAddress": "0xa738be23d3086baf9ace930ff360bc6325731c22",
      "function": "send((uint32,bytes32,uint256,uint256,bytes,bytes,bytes),(uint256,uint256),address)",
      "arguments": [
        "(40161, 0x000000000000000000000000493e5f174b58852c6ac39c98788b8e3548e38cb0, 1000000000000000000, 1000000000000000000, 0x00030100110100000000000000000000000000030d40, 0x, 0x)",
        "(43764692325158863, 0)",
        "0x493e5F174b58852c6Ac39c98788b8e3548E38Cb0"
      ],
      "transaction": {
        "from": "0x493e5f174b58852c6ac39c98788b8e3548e38cb0",
        "to": "0xa738be23d3086baf9ace930ff360bc6325731c22",
        "gas": "0x5f9b0",
        "value": "0x9b7bc17bbecfcf",
        "input": "0xc7c7f5b30000000000000000000000000000000000000000000000000000000000000080000000000000000000000000000000000000000000000000009b7bc17bbecfcf0000000000000000000000000000000000000000000000000000000000000000000000000000000000000000493e5f174b58852c6ac39c98788b8e3548e38cb00000000000000000000000000000000000000000000000000000000000009ce1000000000000000000000000493e5f174b58852c6ac39c98788b8e3548e38cb00000000000000000000000000000000000000000000000000de0b6b3a76400000000000000000000000000000000000000000000000000000de0b6b3a764000000000000000000000000000000000000000000000000000000000000000000e000000000000000000000000000000000000000000000000000000000000001200000000000000000000000000000000000000000000000000000000000000140000000000000000000000000000000000000000000000000000000000000001600030100110100000000000000000000000000030d400000000000000000000000000000000000000000000000000000000000000000000000000000000000000000000000000000000000000000000000000000000000000000000000000000",
        "nonce": "0x9",
        "chainId": "0x4268"
      },
      "additionalContracts": [],
      "isFixedGasLimit": false
    }
  ],
  "receipts": [
    {
      "status": "0x1",
      "cumulativeGasUsed": "0x17f8d20",
      "logs": [
        {
          "address": "0xa738be23d3086baf9ace930ff360bc6325731c22",
          "topics": [
            "0x238399d427b947898edb290f5ff0f9109849b1c3ba196a42e35f00c50a54b98b"
          ],
          "data": "0x0000000000000000000000000000000000000000000000000000000000009ce1000000000000000000000000ae650ec03e807e640580540d7c2df615badf7c22",
          "blockHash": "0xcafea540f4a94f35159dd64a207a33acce7183d6cc03180cd49fd8a22cccc972",
          "blockNumber": "0x34f3f1",
          "transactionHash": "0xba1e226e758d6ae56d8882a0856db5ec4bcac5bd0ad0060cbbd9758818c7e769",
          "transactionIndex": "0x4",
          "logIndex": "0x1c7",
          "removed": false
        }
      ],
      "logsBloom": "0x00000000000000000000000000000000000000000000000000000000000000000000000000000000000000000000000000080000000000000800000000000000000000000000000000000000000000200000000000000000000000000000000000000000000000000000000000000000000000000000000000000000000000000000000000000200000000000000000000000000000000000000000000000000000000000000000000000000000000000000000000000000000002000000000000000000000000000000000000000000000000000000000000040000000000000000000000000000000000000000000000000000000000000000000000000000",
      "type": "0x2",
      "transactionHash": "0xba1e226e758d6ae56d8882a0856db5ec4bcac5bd0ad0060cbbd9758818c7e769",
      "transactionIndex": "0x4",
      "blockHash": "0xcafea540f4a94f35159dd64a207a33acce7183d6cc03180cd49fd8a22cccc972",
      "blockNumber": "0x34f3f1",
      "gasUsed": "0xbcb7",
      "effectiveGasPrice": "0x20ee39",
      "from": "0x493e5f174b58852c6ac39c98788b8e3548e38cb0",
      "to": "0xa738be23d3086baf9ace930ff360bc6325731c22",
      "contractAddress": null
    },
    {
      "status": "0x1",
      "cumulativeGasUsed": "0x1804472",
      "logs": [
        {
          "address": "0xd60f72149bcb6ecb00c7f0d0bd8f686b0ec15e64",
          "topics": [
            "0x8c5be1e5ebec7d5bd14f71427d1e84f3dd0314c0f7b2291e5b200ac8c7c3b925",
            "0x000000000000000000000000493e5f174b58852c6ac39c98788b8e3548e38cb0",
            "0x000000000000000000000000a738be23d3086baf9ace930ff360bc6325731c22"
          ],
          "data": "0x0000000000000000000000000000000000000000000000000de0b6b3a7640000",
          "blockHash": "0xcafea540f4a94f35159dd64a207a33acce7183d6cc03180cd49fd8a22cccc972",
          "blockNumber": "0x34f3f1",
          "transactionHash": "0x371aa9783b260082f73c503ee563ddcd25f50b0f57af998682a86b913be6fc0a",
          "transactionIndex": "0x5",
          "logIndex": "0x1c8",
          "removed": false
        }
      ],
      "logsBloom": "0x00000000000000000000000000000000000000000008000000100200000000000000000000000000000000000000000000000000000000000000000000200000000000000000000000000000000000000000000000000000000000000000000000000000000000000000000000000080000000000000000004000000000000000000000000000000000000000000000000000000000000000000000000000000020000000000000000000000000000000000000000000000000000000008000000000000000000000000000000000000000080000000000000000000000000000010000000000000000000008000000000000000000000040000000000000000",
      "type": "0x2",
      "transactionHash": "0x371aa9783b260082f73c503ee563ddcd25f50b0f57af998682a86b913be6fc0a",
      "transactionIndex": "0x5",
      "blockHash": "0xcafea540f4a94f35159dd64a207a33acce7183d6cc03180cd49fd8a22cccc972",
      "blockNumber": "0x34f3f1",
      "gasUsed": "0xb752",
      "effectiveGasPrice": "0x20ee39",
      "from": "0x493e5f174b58852c6ac39c98788b8e3548e38cb0",
      "to": "0xd60f72149bcb6ecb00c7f0d0bd8f686b0ec15e64",
      "contractAddress": null
    },
    {
      "status": "0x1",
      "cumulativeGasUsed": "0x1845a63",
      "logs": [
        {
          "address": "0xd60f72149bcb6ecb00c7f0d0bd8f686b0ec15e64",
          "topics": [
            "0xddf252ad1be2c89b69c2b068fc378daa952ba7f163c4a11628f55a4df523b3ef",
            "0x000000000000000000000000493e5f174b58852c6ac39c98788b8e3548e38cb0",
            "0x000000000000000000000000a738be23d3086baf9ace930ff360bc6325731c22"
          ],
          "data": "0x0000000000000000000000000000000000000000000000000de0b6b3a7640000",
          "blockHash": "0xcafea540f4a94f35159dd64a207a33acce7183d6cc03180cd49fd8a22cccc972",
          "blockNumber": "0x34f3f1",
          "transactionHash": "0x153e8953c18fd71a7020ca5d1ec793362126114a0f67ad9ad85a4b7bd6c5522d",
          "transactionIndex": "0x6",
          "logIndex": "0x1c9",
          "removed": false
        },
        {
          "address": "0x21f33ecf7f65d61f77e554b4b4380829908cd076",
          "topics": [
            "0x61ed099e74a97a1d7f8bb0952a88ca8b7b8ebd00c126ea04671f92a81213318a"
          ],
          "data": "0x000000000000000000000000bc0c24e6f24ec2f1fd7e859b8322a1277f80aad5000000000000000000000000000000000000000000000000009232f4eedc767c",
          "blockHash": "0xcafea540f4a94f35159dd64a207a33acce7183d6cc03180cd49fd8a22cccc972",
          "blockNumber": "0x34f3f1",
          "transactionHash": "0x153e8953c18fd71a7020ca5d1ec793362126114a0f67ad9ad85a4b7bd6c5522d",
          "transactionIndex": "0x6",
          "logIndex": "0x1ca",
          "removed": false
        },
        {
          "address": "0x21f33ecf7f65d61f77e554b4b4380829908cd076",
          "topics": [
            "0x07ea52d82345d6e838192107d8fd7123d9c2ec8e916cd0aad13fd2b60db24644"
          ],
          "data": "0x000000000000000000000000000000000000000000000000000000000000006000000000000000000000000000000000000000000000000000000000000000a000000000000000000000000000000000000000000000000000000000000000c000000000000000000000000000000000000000000000000000000000000000010000000000000000000000003e43f8ff0175580f7644da043071c289ddf9811800000000000000000000000000000000000000000000000000000000000000000000000000000000000000000000000000000000000000000000000000000001000000000000000000000000000000000000000000000000000948cc8ce25953",
          "blockHash": "0xcafea540f4a94f35159dd64a207a33acce7183d6cc03180cd49fd8a22cccc972",
          "blockNumber": "0x34f3f1",
          "transactionHash": "0x153e8953c18fd71a7020ca5d1ec793362126114a0f67ad9ad85a4b7bd6c5522d",
          "transactionIndex": "0x6",
          "logIndex": "0x1cb",
          "removed": false
        },
        {
          "address": "0x6edce65403992e310a62460808c4b910d972f10f",
          "topics": [
            "0x1ab700d4ced0c005b164c0f789fd09fcbb0156d4c2041b8a3bfbcd961cd1567f"
          ],
          "data": "0x0000000000000000000000000000000000000000000000000000000000000060000000000000000000000000000000000000000000000000000000000000012000000000000000000000000021f33ecf7f65d61f77e554b4b4380829908cd076000000000000000000000000000000000000000000000000000000000000009901000000000000000100009d19000000000000000000000000a738be23d3086baf9ace930ff360bc6325731c2200009ce1000000000000000000000000ae650ec03e807e640580540d7c2df615badf7c22702799f502591debeb8dca9df0ee4b2e4f788cad7ae74fecc1ee8d2650feb720000000000000000000000000493e5f174b58852c6ac39c98788b8e3548e38cb000000000000f424000000000000000000000000000000000000000000000000000000000000000000000000000001600030100110100000000000000000000000000030d4000000000000000000000",
          "blockHash": "0xcafea540f4a94f35159dd64a207a33acce7183d6cc03180cd49fd8a22cccc972",
          "blockNumber": "0x34f3f1",
          "transactionHash": "0x153e8953c18fd71a7020ca5d1ec793362126114a0f67ad9ad85a4b7bd6c5522d",
          "transactionIndex": "0x6",
          "logIndex": "0x1cc",
          "removed": false
        },
        {
          "address": "0xa738be23d3086baf9ace930ff360bc6325731c22",
          "topics": [
            "0x85496b760a4b7f8d66384b9df21b381f5d1b1e79f229a47aaf4c232edc2fe59a",
            "0x702799f502591debeb8dca9df0ee4b2e4f788cad7ae74fecc1ee8d2650feb720",
            "0x000000000000000000000000493e5f174b58852c6ac39c98788b8e3548e38cb0"
          ],
          "data": "0x0000000000000000000000000000000000000000000000000000000000009ce10000000000000000000000000000000000000000000000000de0b6b3a76400000000000000000000000000000000000000000000000000000de0b6b3a7640000",
          "blockHash": "0xcafea540f4a94f35159dd64a207a33acce7183d6cc03180cd49fd8a22cccc972",
          "blockNumber": "0x34f3f1",
          "transactionHash": "0x153e8953c18fd71a7020ca5d1ec793362126114a0f67ad9ad85a4b7bd6c5522d",
          "transactionIndex": "0x6",
          "logIndex": "0x1cd",
          "removed": false
        }
      ],
      "logsBloom": "0x00000000100000000000000000000000000000000008000000100200000000000000000000000000200000000000000000080400000000000000000000000000000002000000000000000008000000200000010000000000000000000000000000000000000000008200000000000080000000000000000004000010000000000000000000000220000000080000000000000200000000000010000000000000000000008000000000100000000000000000100000400000000440000008000000000002000000000000000080000000000080000000000000000000000000000000040000000000000000008000002000000000008000040000000000000000",
      "type": "0x2",
      "transactionHash": "0x153e8953c18fd71a7020ca5d1ec793362126114a0f67ad9ad85a4b7bd6c5522d",
      "transactionIndex": "0x6",
      "blockHash": "0xcafea540f4a94f35159dd64a207a33acce7183d6cc03180cd49fd8a22cccc972",
      "blockNumber": "0x34f3f1",
      "gasUsed": "0x415f1",
      "effectiveGasPrice": "0x20ee39",
      "from": "0x493e5f174b58852c6ac39c98788b8e3548e38cb0",
      "to": "0xa738be23d3086baf9ace930ff360bc6325731c22",
      "contractAddress": null
    }
  ],
  "libraries": [],
  "pending": [],
  "returns": {},
  "timestamp": 1741663550,
  "chain": 17000,
  "commit": null
}