{
  "transactions": [
    {
      "hash": "0xd7d3760c707e3e7de2237c912c48fa3ddd6d18da297664df0c2f545dda6553c9",
      "transactionType": "CALL",
      "contractName": null,
      "contractAddress": "0xa738be23d3086baf9ace930ff360bc6325731c22",
      "function": "setPeer(uint32,bytes32)",
      "arguments": [
        "40161",
        "0x000000000000000000000000d3b190c7672c9c6d4f4841eb102bb6cda374da5a"
      ],
      "transaction": {
        "from": "0x493e5f174b58852c6ac39c98788b8e3548e38cb0",
        "to": "0xa738be23d3086baf9ace930ff360bc6325731c22",
        "gas": "0xa24e",
        "value": "0x0",
        "input": "0x3400288b0000000000000000000000000000000000000000000000000000000000009ce1000000000000000000000000d3b190c7672c9c6d4f4841eb102bb6cda374da5a",
        "nonce": "0xd",
        "chainId": "0x4268"
      },
      "additionalContracts": [],
      "isFixedGasLimit": false
    },
    {
      "hash": "0xdec635e1679b4c47018ed50e647ead948903bd43958cb54948ba3e78c375edca",
      "transactionType": "CALL",
      "contractName": null,
      "contractAddress": "0xd60f72149bcb6ecb00c7f0d0bd8f686b0ec15e64",
      "function": "approve(address,uint256)",
      "arguments": [
        "0xA738be23d3086bAf9ace930ff360Bc6325731C22",
        "1000000000000000000"
      ],
      "transaction": {
        "from": "0x493e5f174b58852c6ac39c98788b8e3548e38cb0",
        "to": "0xd60f72149bcb6ecb00c7f0d0bd8f686b0ec15e64",
        "gas": "0x10c1a",
        "value": "0x0",
        "input": "0x095ea7b3000000000000000000000000a738be23d3086baf9ace930ff360bc6325731c220000000000000000000000000000000000000000000000000de0b6b3a7640000",
        "nonce": "0xe",
        "chainId": "0x4268"
      },
      "additionalContracts": [],
      "isFixedGasLimit": false
    },
    {
      "hash": "0x9678a1dc69fe2a49f29aa1ff01033befa28a8b899bba2e93529342a2d4c52052",
      "transactionType": "CALL",
      "contractName": null,
      "contractAddress": "0xa738be23d3086baf9ace930ff360bc6325731c22",
      "function": "send((uint32,bytes32,uint256,uint256,bytes,bytes,bytes),(uint256,uint256),address)",
      "arguments": [
        "(40161, 0x000000000000000000000000493e5f174b58852c6ac39c98788b8e3548e38cb0, 1000000000000000000, 1000000000000000000, 0x00030100110100000000000000000000000000030d40, 0x, 0x)",
        "(43764692325158863, 0)",
        "0x493e5F174b58852c6Ac39c98788b8e3548E38Cb0"
      ],
      "transaction": {
        "from": "0x493e5f174b58852c6ac39c98788b8e3548e38cb0",
        "to": "0xa738be23d3086baf9ace930ff360bc6325731c22",
        "gas": "0x5364e",
        "value": "0x9b7bc17bbecfcf",
        "input": "0xc7c7f5b30000000000000000000000000000000000000000000000000000000000000080000000000000000000000000000000000000000000000000009b7bc17bbecfcf0000000000000000000000000000000000000000000000000000000000000000000000000000000000000000493e5f174b58852c6ac39c98788b8e3548e38cb00000000000000000000000000000000000000000000000000000000000009ce1000000000000000000000000493e5f174b58852c6ac39c98788b8e3548e38cb00000000000000000000000000000000000000000000000000de0b6b3a76400000000000000000000000000000000000000000000000000000de0b6b3a764000000000000000000000000000000000000000000000000000000000000000000e000000000000000000000000000000000000000000000000000000000000001200000000000000000000000000000000000000000000000000000000000000140000000000000000000000000000000000000000000000000000000000000001600030100110100000000000000000000000000030d400000000000000000000000000000000000000000000000000000000000000000000000000000000000000000000000000000000000000000000000000000000000000000000000000000",
        "nonce": "0xf",
        "chainId": "0x4268"
      },
      "additionalContracts": [],
      "isFixedGasLimit": false
    }
  ],
  "receipts": [
    {
      "status": "0x1",
      "cumulativeGasUsed": "0x192ea9b",
      "logs": [
        {
          "address": "0xa738be23d3086baf9ace930ff360bc6325731c22",
          "topics": [
            "0x238399d427b947898edb290f5ff0f9109849b1c3ba196a42e35f00c50a54b98b"
          ],
          "data": "0x0000000000000000000000000000000000000000000000000000000000009ce1000000000000000000000000d3b190c7672c9c6d4f4841eb102bb6cda374da5a",
          "blockHash": "0xa13c2b9fb67550a3252b18a63f28c7aabcfec239fa72d6da0050d3014cce3de4",
          "blockNumber": "0x34f5e4",
          "transactionHash": "0xd7d3760c707e3e7de2237c912c48fa3ddd6d18da297664df0c2f545dda6553c9",
          "transactionIndex": "0xa",
          "logIndex": "0x1bf",
          "removed": false
        }
      ],
      "logsBloom": "0x00000000000000000000000000000000000000000000000000000000000000000000000000000000000000000000000000080000000000000800000000000000000000000000000000000000000000200000000000000000000000000000000000000000000000000000000000000000000000000000000000000000000000000000000000000200000000000000000000000000000000000000000000000000000000000000000000000000000000000000000000000000000002000000000000000000000000000000000000000000000000000000000000040000000000000000000000000000000000000000000000000000000000000000000000000000",
      "type": "0x2",
      "transactionHash": "0xd7d3760c707e3e7de2237c912c48fa3ddd6d18da297664df0c2f545dda6553c9",
      "transactionIndex": "0xa",
      "blockHash": "0xa13c2b9fb67550a3252b18a63f28c7aabcfec239fa72d6da0050d3014cce3de4",
      "blockNumber": "0x34f5e4",
      "gasUsed": "0x6efb",
      "effectiveGasPrice": "0x24760f",
      "from": "0x493e5f174b58852c6ac39c98788b8e3548e38cb0",
      "to": "0xa738be23d3086baf9ace930ff360bc6325731c22",
      "contractAddress": null
    },
    {
      "status": "0x1",
      "cumulativeGasUsed": "0x193a1ed",
      "logs": [
        {
          "address": "0xd60f72149bcb6ecb00c7f0d0bd8f686b0ec15e64",
          "topics": [
            "0x8c5be1e5ebec7d5bd14f71427d1e84f3dd0314c0f7b2291e5b200ac8c7c3b925",
            "0x000000000000000000000000493e5f174b58852c6ac39c98788b8e3548e38cb0",
            "0x000000000000000000000000a738be23d3086baf9ace930ff360bc6325731c22"
          ],
          "data": "0x0000000000000000000000000000000000000000000000000de0b6b3a7640000",
          "blockHash": "0xa13c2b9fb67550a3252b18a63f28c7aabcfec239fa72d6da0050d3014cce3de4",
          "blockNumber": "0x34f5e4",
          "transactionHash": "0xdec635e1679b4c47018ed50e647ead948903bd43958cb54948ba3e78c375edca",
          "transactionIndex": "0xb",
          "logIndex": "0x1c0",
          "removed": false
        }
      ],
      "logsBloom": "0x00000000000000000000000000000000000000000008000000100200000000000000000000000000000000000000000000000000000000000000000000200000000000000000000000000000000000000000000000000000000000000000000000000000000000000000000000000080000000000000000004000000000000000000000000000000000000000000000000000000000000000000000000000000020000000000000000000000000000000000000000000000000000000008000000000000000000000000000000000000000080000000000000000000000000000010000000000000000000008000000000000000000000040000000000000000",
      "type": "0x2",
      "transactionHash": "0xdec635e1679b4c47018ed50e647ead948903bd43958cb54948ba3e78c375edca",
      "transactionIndex": "0xb",
      "blockHash": "0xa13c2b9fb67550a3252b18a63f28c7aabcfec239fa72d6da0050d3014cce3de4",
      "blockNumber": "0x34f5e4",
      "gasUsed": "0xb752",
      "effectiveGasPrice": "0x24760f",
      "from": "0x493e5f174b58852c6ac39c98788b8e3548e38cb0",
      "to": "0xd60f72149bcb6ecb00c7f0d0bd8f686b0ec15e64",
      "contractAddress": null
    },
    {
      "status": "0x1",
      "cumulativeGasUsed": "0x1973246",
      "logs": [
        {
          "address": "0xd60f72149bcb6ecb00c7f0d0bd8f686b0ec15e64",
          "topics": [
            "0xddf252ad1be2c89b69c2b068fc378daa952ba7f163c4a11628f55a4df523b3ef",
            "0x000000000000000000000000493e5f174b58852c6ac39c98788b8e3548e38cb0",
            "0x000000000000000000000000a738be23d3086baf9ace930ff360bc6325731c22"
          ],
          "data": "0x0000000000000000000000000000000000000000000000000de0b6b3a7640000",
          "blockHash": "0xa13c2b9fb67550a3252b18a63f28c7aabcfec239fa72d6da0050d3014cce3de4",
          "blockNumber": "0x34f5e4",
          "transactionHash": "0x9678a1dc69fe2a49f29aa1ff01033befa28a8b899bba2e93529342a2d4c52052",
          "transactionIndex": "0xc",
          "logIndex": "0x1c1",
          "removed": false
        },
        {
          "address": "0x21f33ecf7f65d61f77e554b4b4380829908cd076",
          "topics": [
            "0x61ed099e74a97a1d7f8bb0952a88ca8b7b8ebd00c126ea04671f92a81213318a"
          ],
          "data": "0x000000000000000000000000bc0c24e6f24ec2f1fd7e859b8322a1277f80aad5000000000000000000000000000000000000000000000000009232f4eedc767c",
          "blockHash": "0xa13c2b9fb67550a3252b18a63f28c7aabcfec239fa72d6da0050d3014cce3de4",
          "blockNumber": "0x34f5e4",
          "transactionHash": "0x9678a1dc69fe2a49f29aa1ff01033befa28a8b899bba2e93529342a2d4c52052",
          "transactionIndex": "0xc",
          "logIndex": "0x1c2",
          "removed": false
        },
        {
          "address": "0x21f33ecf7f65d61f77e554b4b4380829908cd076",
          "topics": [
            "0x07ea52d82345d6e838192107d8fd7123d9c2ec8e916cd0aad13fd2b60db24644"
          ],
          "data": "0x000000000000000000000000000000000000000000000000000000000000006000000000000000000000000000000000000000000000000000000000000000a000000000000000000000000000000000000000000000000000000000000000c000000000000000000000000000000000000000000000000000000000000000010000000000000000000000003e43f8ff0175580f7644da043071c289ddf9811800000000000000000000000000000000000000000000000000000000000000000000000000000000000000000000000000000000000000000000000000000001000000000000000000000000000000000000000000000000000948cc8ce25953",
          "blockHash": "0xa13c2b9fb67550a3252b18a63f28c7aabcfec239fa72d6da0050d3014cce3de4",
          "blockNumber": "0x34f5e4",
          "transactionHash": "0x9678a1dc69fe2a49f29aa1ff01033befa28a8b899bba2e93529342a2d4c52052",
          "transactionIndex": "0xc",
          "logIndex": "0x1c3",
          "removed": false
        },
        {
          "address": "0x6edce65403992e310a62460808c4b910d972f10f",
          "topics": [
            "0x1ab700d4ced0c005b164c0f789fd09fcbb0156d4c2041b8a3bfbcd961cd1567f"
          ],
          "data": "0x0000000000000000000000000000000000000000000000000000000000000060000000000000000000000000000000000000000000000000000000000000012000000000000000000000000021f33ecf7f65d61f77e554b4b4380829908cd076000000000000000000000000000000000000000000000000000000000000009901000000000000000200009d19000000000000000000000000a738be23d3086baf9ace930ff360bc6325731c2200009ce1000000000000000000000000d3b190c7672c9c6d4f4841eb102bb6cda374da5aa3baafb3566b5fc397760272ab0e076dac2e35ae6d54d0c8c53ff130b416bdf3000000000000000000000000493e5f174b58852c6ac39c98788b8e3548e38cb000000000000f424000000000000000000000000000000000000000000000000000000000000000000000000000001600030100110100000000000000000000000000030d4000000000000000000000",
          "blockHash": "0xa13c2b9fb67550a3252b18a63f28c7aabcfec239fa72d6da0050d3014cce3de4",
          "blockNumber": "0x34f5e4",
          "transactionHash": "0x9678a1dc69fe2a49f29aa1ff01033befa28a8b899bba2e93529342a2d4c52052",
          "transactionIndex": "0xc",
          "logIndex": "0x1c4",
          "removed": false
        },
        {
          "address": "0xa738be23d3086baf9ace930ff360bc6325731c22",
          "topics": [
            "0x85496b760a4b7f8d66384b9df21b381f5d1b1e79f229a47aaf4c232edc2fe59a",
            "0xa3baafb3566b5fc397760272ab0e076dac2e35ae6d54d0c8c53ff130b416bdf3",
            "0x000000000000000000000000493e5f174b58852c6ac39c98788b8e3548e38cb0"
          ],
          "data": "0x0000000000000000000000000000000000000000000000000000000000009ce10000000000000000000000000000000000000000000000000de0b6b3a76400000000000000000000000000000000000000000000000000000de0b6b3a7640000",
          "blockHash": "0xa13c2b9fb67550a3252b18a63f28c7aabcfec239fa72d6da0050d3014cce3de4",
          "blockNumber": "0x34f5e4",
          "transactionHash": "0x9678a1dc69fe2a49f29aa1ff01033befa28a8b899bba2e93529342a2d4c52052",
          "transactionIndex": "0xc",
          "logIndex": "0x1c5",
          "removed": false
        }
      ],
      "logsBloom": "0x00000000000000000000000000000000000000000008000000100200000000000000000000000000200000000000000000080400000000000000000000000000000002010000000000000008000000200000010000000000000000000000000000000000000000008200000000000080000000000000000004000010000000000000000000000220000000080000000000000000000000000000020000000000000000008000000000100000000000000000100000400000000440000008000000000002000000000000000080000000000080000000000000000000000000000000040000000000000000008000002000000000008000040000000000000000",
      "type": "0x2",
      "transactionHash": "0x9678a1dc69fe2a49f29aa1ff01033befa28a8b899bba2e93529342a2d4c52052",
      "transactionIndex": "0xc",
      "blockHash": "0xa13c2b9fb67550a3252b18a63f28c7aabcfec239fa72d6da0050d3014cce3de4",
      "blockNumber": "0x34f5e4",
      "gasUsed": "0x39059",
      "effectiveGasPrice": "0x24760f",
      "from": "0x493e5f174b58852c6ac39c98788b8e3548e38cb0",
      "to": "0xa738be23d3086baf9ace930ff360bc6325731c22",
      "contractAddress": null
    }
  ],
  "libraries": [],
  "pending": [],
  "returns": {},
  "timestamp": 1741670894,
  "chain": 17000,
  "commit": null
}