{
  "transactions": [
    {
      "hash": "0xa512f425b256ded39bd11dd6824091ac7b870be5a7fd12c8dbf41fb7d64fa9c5",
      "transactionType": "CALL",
      "contractName": null,
      "contractAddress": "0xfe84eF1F94B4D1fD9f4Deb2ce1E6F881FE4f15eb",
      "function": "send((uint32,bytes32,uint256,uint256,bytes,bytes,bytes),(uint256,uint256),address)",
      "arguments": [
        "(40161, 0x0000000000000000000000008235753b562109c0efd4c2da4e4138aed10fa397, 2000000000000000000, 1800000000000000000, 0x0003010011010000000000000000000000000000fde8, 0x, 0x)",
        "(24315611273206363, 0)",
        "0x8235753B562109C0efD4C2dA4E4138aed10Fa397"
      ],
      "transaction": {
        "type": "0x02",
        "from": "0x8235753b562109c0efd4c2da4e4138aed10fa397",
        "to": "0xfe84ef1f94b4d1fd9f4deb2ce1e6f881fe4f15eb",
        "gas": "0x5129f",
        "value": "0x5662eb6c6f9a5b",
        "data": "0xc7c7f5b30000000000000000000000000000000000000000000000000000000000000080000000000000000000000000000000000000000000000000005662eb6c6f9a5b00000000000000000000000000000000000000000000000000000000000000000000000000000000000000008235753b562109c0efd4c2da4e4138aed10fa3970000000000000000000000000000000000000000000000000000000000009ce10000000000000000000000008235753b562109c0efd4c2da4e4138aed10fa3970000000000000000000000000000000000000000000000001bc16d674ec8000000000000000000000000000000000000000000000000000018fae27693b4000000000000000000000000000000000000000000000000000000000000000000e00000000000000000000000000000000000000000000000000000000000000120000000000000000000000000000000000000000000000000000000000000014000000000000000000000000000000000000000000000000000000000000000160003010011010000000000000000000000000000fde80000000000000000000000000000000000000000000000000000000000000000000000000000000000000000000000000000000000000000000000000000000000000000000000000000",
        "nonce": "0x30",
        "accessList": []
      },
      "additionalContracts": [],
      "isFixedGasLimit": false
    }
  ],
  "receipts": [
    {
      "transactionHash": "0xa512f425b256ded39bd11dd6824091ac7b870be5a7fd12c8dbf41fb7d64fa9c5",
      "transactionIndex": "0x0",
      "blockHash": "0xe1a076218be4ac968630c60b48a9f0270a678056373e7a48e85e072cf17be347",
      "blockNumber": "0x3536a6",
      "from": "0x8235753B562109C0efD4C2dA4E4138aed10Fa397",
      "to": "0xfe84eF1F94B4D1fD9f4Deb2ce1E6F881FE4f15eb",
      "cumulativeGasUsed": "0x3ac2f",
      "gasUsed": "0x3ac2f",
      "contractAddress": null,
      "logs": [
        {
          "address": "0xfe84eF1F94B4D1fD9f4Deb2ce1E6F881FE4f15eb",
          "topics": [
            "0xddf252ad1be2c89b69c2b068fc378daa952ba7f163c4a11628f55a4df523b3ef",
            "0x0000000000000000000000008235753b562109c0efd4c2da4e4138aed10fa397",
            "0x0000000000000000000000000000000000000000000000000000000000000000"
          ],
          "data": "0x0000000000000000000000000000000000000000000000001bc16d674ec80000",
          "blockHash": "0xe1a076218be4ac968630c60b48a9f0270a678056373e7a48e85e072cf17be347",
          "blockNumber": "0x3536a6",
          "transactionHash": "0xa512f425b256ded39bd11dd6824091ac7b870be5a7fd12c8dbf41fb7d64fa9c5",
          "transactionIndex": "0x0",
          "logIndex": "0x0",
          "removed": false
        },
        {
          "address": "0x21F33EcF7F65D61f77e554B4B4380829908cD076",
          "topics": [
            "0x61ed099e74a97a1d7f8bb0952a88ca8b7b8ebd00c126ea04671f92a81213318a"
          ],
          "data": "0x000000000000000000000000bc0c24e6f24ec2f1fd7e859b8322a1277f80aad5000000000000000000000000000000000000000000000000004d1a1edf8d4108",
          "blockHash": "0xe1a076218be4ac968630c60b48a9f0270a678056373e7a48e85e072cf17be347",
          "blockNumber": "0x3536a6",
          "transactionHash": "0xa512f425b256ded39bd11dd6824091ac7b870be5a7fd12c8dbf41fb7d64fa9c5",
          "transactionIndex": "0x0",
          "logIndex": "0x1",
          "removed": false
        },
        {
          "address": "0x21F33EcF7F65D61f77e554B4B4380829908cD076",
          "topics": [
            "0x07ea52d82345d6e838192107d8fd7123d9c2ec8e916cd0aad13fd2b60db24644"
          ],
          "data": "0x000000000000000000000000000000000000000000000000000000000000006000000000000000000000000000000000000000000000000000000000000000a000000000000000000000000000000000000000000000000000000000000000c000000000000000000000000000000000000000000000000000000000000000010000000000000000000000003e43f8ff0175580f7644da043071c289ddf9811800000000000000000000000000000000000000000000000000000000000000000000000000000000000000000000000000000000000000000000000000000001000000000000000000000000000000000000000000000000000948cc8ce25953",
          "blockHash": "0xe1a076218be4ac968630c60b48a9f0270a678056373e7a48e85e072cf17be347",
          "blockNumber": "0x3536a6",
          "transactionHash": "0xa512f425b256ded39bd11dd6824091ac7b870be5a7fd12c8dbf41fb7d64fa9c5",
          "transactionIndex": "0x0",
          "logIndex": "0x2",
          "removed": false
        },
        {
          "address": "0x6EDCE65403992e310A62460808c4b910D972f10f",
          "topics": [
            "0x1ab700d4ced0c005b164c0f789fd09fcbb0156d4c2041b8a3bfbcd961cd1567f"
          ],
          "data": "0x0000000000000000000000000000000000000000000000000000000000000060000000000000000000000000000000000000000000000000000000000000012000000000000000000000000021f33ecf7f65d61f77e554b4b4380829908cd076000000000000000000000000000000000000000000000000000000000000009901000000000000000100009d19000000000000000000000000fe84ef1f94b4d1fd9f4deb2ce1e6f881fe4f15eb00009ce1000000000000000000000000244c8fc22f2bc3143ff0af0f595c36d37807f3f59a2a299416e8033ec9464fd89264f35b84519b9c4ea8b6086d5066a5dfe98e510000000000000000000000008235753b562109c0efd4c2da4e4138aed10fa39700000000001e84800000000000000000000000000000000000000000000000000000000000000000000000000000160003010011010000000000000000000000000000fde800000000000000000000",
          "blockHash": "0xe1a076218be4ac968630c60b48a9f0270a678056373e7a48e85e072cf17be347",
          "blockNumber": "0x3536a6",
          "transactionHash": "0xa512f425b256ded39bd11dd6824091ac7b870be5a7fd12c8dbf41fb7d64fa9c5",
          "transactionIndex": "0x0",
          "logIndex": "0x3",
          "removed": false
        },
        {
          "address": "0xfe84eF1F94B4D1fD9f4Deb2ce1E6F881FE4f15eb",
          "topics": [
            "0x85496b760a4b7f8d66384b9df21b381f5d1b1e79f229a47aaf4c232edc2fe59a",
            "0x9a2a299416e8033ec9464fd89264f35b84519b9c4ea8b6086d5066a5dfe98e51",
            "0x0000000000000000000000008235753b562109c0efd4c2da4e4138aed10fa397"
          ],
          "data": "0x0000000000000000000000000000000000000000000000000000000000009ce10000000000000000000000000000000000000000000000001bc16d674ec800000000000000000000000000000000000000000000000000001bc16d674ec80000",
          "blockHash": "0xe1a076218be4ac968630c60b48a9f0270a678056373e7a48e85e072cf17be347",
          "blockNumber": "0x3536a6",
          "transactionHash": "0xa512f425b256ded39bd11dd6824091ac7b870be5a7fd12c8dbf41fb7d64fa9c5",
          "transactionIndex": "0x0",
          "logIndex": "0x4",
          "removed": false
        }
      ],
      "status": "0x1",
      "logsBloom": "0x0000000000000000000000000000000000000000000000000000000000000000000000000000000020000000000000020000040000000000000000000000000000000200000000000000000800000000000001000000000000000000000000000000000002000000820000000000080000000010000000000200001000000000000000000000002000000008000000000000000000000008000000000000000000000000800000000010008000000000000010000040001000044000000000000000000a000000000000000080000000000000000400000000000000000020000000040000000000000000000000002000000000008000400000000000000000",
      "type": "0x2",
      "effectiveGasPrice": "0xb2e600c0"
    }
  ],
  "libraries": [],
  "pending": [],
  "returns": {},
  "timestamp": 1741929953,
  "chain": 17000,
  "commit": "5eceab0"
}