{
  "transactions": [
    {
      "hash": "0xeaa2d607ce6ca5d61d54d478d4ff7e89e0482fa5c3b0dad2b845aed60cd9f248",
      "transactionType": "CALL",
      "contractName": "MyAdapter",
      "contractAddress": "0xdb3b65116a13aa1ffa7b711d5ae29087f44347ab",
      "function": "setPeer(uint32,bytes32)",
      "arguments": [
        "40217",
        "0x000000000000000000000000ae650ec03e807e640580540d7c2df615badf7c22"
      ],
      "transaction": {
        "from": "0x493e5f174b58852c6ac39c98788b8e3548e38cb0",
        "to": "0xdb3b65116a13aa1ffa7b711d5ae29087f44347ab",
        "gas": "0xa24e",
        "value": "0x0",
        "input": "0x3400288b0000000000000000000000000000000000000000000000000000000000009d19000000000000000000000000ae650ec03e807e640580540d7c2df615badf7c22",
        "nonce": "0x16",
        "chainId": "0xaa36a7"
      },
      "additionalContracts": [],
      "isFixedGasLimit": false
    },
    {
      "hash": "0x53236c983b7b59bdc49d9b0b453ae8d38dfb1d172db3585dd95d62712ff7cecf",
      "transactionType": "CALL",
      "contractName": null,
      "contractAddress": "0xbeb5b2b0b87e3ef336235178f29381219b9094a9",
      "function": "approve(address,uint256)",
      "arguments": [
        "0xDB3b65116a13Aa1ffA7B711D5Ae29087f44347ab",
        "1000000000000000000"
      ],
      "transaction": {
        "from": "0x493e5f174b58852c6ac39c98788b8e3548e38cb0",
        "to": "0xbeb5b2b0b87e3ef336235178f29381219b9094a9",
        "gas": "0x117aa",
        "value": "0x0",
        "input": "0x095ea7b3000000000000000000000000db3b65116a13aa1ffa7b711d5ae29087f44347ab0000000000000000000000000000000000000000000000000de0b6b3a7640000",
        "nonce": "0x17",
        "chainId": "0xaa36a7"
      },
      "additionalContracts": [],
      "isFixedGasLimit": false
    },
    {
      "hash": null,
      "transactionType": "CALL",
      "contractName": "MyAdapter",
      "contractAddress": "0xdb3b65116a13aa1ffa7b711d5ae29087f44347ab",
      "function": "send((uint32,bytes32,uint256,uint256,bytes,bytes,bytes),(uint256,uint256),address)",
      "arguments": [
        "(40217, 0x000000000000000000000000493e5f174b58852c6ac39c98788b8e3548e38cb0, 1000000000000000000, 1000000000000000000, 0x00030100110100000000000000000000000000030d40, 0x, 0x)",
        "(103867528084678, 0)",
        "0x493e5F174b58852c6Ac39c98788b8e3548E38Cb0"
      ],
      "transaction": {
        "from": "0x493e5f174b58852c6ac39c98788b8e3548e38cb0",
        "to": "0xdb3b65116a13aa1ffa7b711d5ae29087f44347ab",
        "gas": "0x5115c",
        "value": "0x5e778b1d7cc6",
        "input": "0xc7c7f5b3000000000000000000000000000000000000000000000000000000000000008000000000000000000000000000000000000000000000000000005e778b1d7cc60000000000000000000000000000000000000000000000000000000000000000000000000000000000000000493e5f174b58852c6ac39c98788b8e3548e38cb00000000000000000000000000000000000000000000000000000000000009d19000000000000000000000000493e5f174b58852c6ac39c98788b8e3548e38cb00000000000000000000000000000000000000000000000000de0b6b3a76400000000000000000000000000000000000000000000000000000de0b6b3a764000000000000000000000000000000000000000000000000000000000000000000e000000000000000000000000000000000000000000000000000000000000001200000000000000000000000000000000000000000000000000000000000000140000000000000000000000000000000000000000000000000000000000000001600030100110100000000000000000000000000030d400000000000000000000000000000000000000000000000000000000000000000000000000000000000000000000000000000000000000000000000000000000000000000000000000000",
        "nonce": "0x18",
        "chainId": "0xaa36a7"
      },
      "additionalContracts": [],
      "isFixedGasLimit": false
    }
  ],
  "receipts": [],
  "libraries": [],
  "pending": [
    "0xeaa2d607ce6ca5d61d54d478d4ff7e89e0482fa5c3b0dad2b845aed60cd9f248",
    "0x53236c983b7b59bdc49d9b0b453ae8d38dfb1d172db3585dd95d62712ff7cecf"
  ],
  "returns": {},
  "timestamp": 1741611971,
  "chain": 11155111,
  "commit": null
}