{
  "transactions": [
    {
      "hash": "0xa14d32c106ea5551c0a2af0cfa0786862c71e98c2f9c707e0f3cb1a964212fc1",
      "transactionType": "CALL",
      "contractName": null,
      "contractAddress": "0xbeb5b2b0b87e3ef336235178f29381219b9094a9",
      "function": "approve(address,uint256)",
      "arguments": [
        "0xDB3b65116a13Aa1ffA7B711D5Ae29087f44347ab",
        "1000000000000000000"
      ],
      "transaction": {
        "from": "0x493e5f174b58852c6ac39c98788b8e3548e38cb0",
        "to": "0xbeb5b2b0b87e3ef336235178f29381219b9094a9",
        "gas": "0x117aa",
        "value": "0x0",
        "input": "0x095ea7b3000000000000000000000000db3b65116a13aa1ffa7b711d5ae29087f44347ab0000000000000000000000000000000000000000000000000de0b6b3a7640000",
        "nonce": "0x11",
        "chainId": "0xaa36a7"
      },
      "additionalContracts": [],
      "isFixedGasLimit": false
    },
    {
      "hash": "0xf16db9e290b074af909d2b235d00e6b4396c439a59d876a45dae9a2e87d87fe2",
      "transactionType": "CALL",
      "contractName": null,
      "contractAddress": "0xdb3b65116a13aa1ffa7b711d5ae29087f44347ab",
      "function": "send((uint32,bytes32,uint256,uint256,bytes,bytes,bytes),(uint256,uint256),address)",
      "arguments": [
        "(40217, 0x000000000000000000000000493e5f174b58852c6ac39c98788b8e3548e38cb0, 1000000000000000000, 1000000000000000000, 0x00030100110100000000000000000000000000030d40, 0x, 0x)",
        "(92855794807944, 0)",
        "0x493e5F174b58852c6Ac39c98788b8e3548E38Cb0"
      ],
      "transaction": {
        "from": "0x493e5f174b58852c6ac39c98788b8e3548e38cb0",
        "to": "0xdb3b65116a13aa1ffa7b711d5ae29087f44347ab",
        "gas": "0x5c9e2",
        "value": "0x5473acaa3488",
        "input": "0xc7c7f5b3000000000000000000000000000000000000000000000000000000000000008000000000000000000000000000000000000000000000000000005473acaa34880000000000000000000000000000000000000000000000000000000000000000000000000000000000000000493e5f174b58852c6ac39c98788b8e3548e38cb00000000000000000000000000000000000000000000000000000000000009d19000000000000000000000000493e5f174b58852c6ac39c98788b8e3548e38cb00000000000000000000000000000000000000000000000000de0b6b3a76400000000000000000000000000000000000000000000000000000de0b6b3a764000000000000000000000000000000000000000000000000000000000000000000e000000000000000000000000000000000000000000000000000000000000001200000000000000000000000000000000000000000000000000000000000000140000000000000000000000000000000000000000000000000000000000000001600030100110100000000000000000000000000030d400000000000000000000000000000000000000000000000000000000000000000000000000000000000000000000000000000000000000000000000000000000000000000000000000000",
        "nonce": "0x12",
        "chainId": "0xaa36a7"
      },
      "additionalContracts": [],
      "isFixedGasLimit": false
    }
  ],
  "receipts": [
    {
      "status": "0x1",
      "cumulativeGasUsed": "0x1133971",
      "logs": [
        {
          "address": "0xbeb5b2b0b87e3ef336235178f29381219b9094a9",
          "topics": [
            "0x8c5be1e5ebec7d5bd14f71427d1e84f3dd0314c0f7b2291e5b200ac8c7c3b925",
            "0x000000000000000000000000493e5f174b58852c6ac39c98788b8e3548e38cb0",
            "0x000000000000000000000000db3b65116a13aa1ffa7b711d5ae29087f44347ab"
          ],
          "data": "0x0000000000000000000000000000000000000000000000000de0b6b3a7640000",
          "blockHash": "0xec68424a2a2c516dd40cbd2476c61756a24fa0a0381cf74c40c78de6fa999cb6",
          "blockNumber": "0x77c625",
          "blockTimestamp": "0x67ca73a8",
          "transactionHash": "0xa14d32c106ea5551c0a2af0cfa0786862c71e98c2f9c707e0f3cb1a964212fc1",
          "transactionIndex": "0xa6",
          "logIndex": "0xcf",
          "removed": false
        }
      ],
      "logsBloom": "0x00000000000000000000000000000000000000000000000000100200040000000000000000000000000000000000000000000000000000000000000000200000000000000000000000000000000000000000000200000000000000000000000000000000000000000000000000000000000000008000000004000000000000000000000000000000000000000000000000000000000000000000000000000200020000000000000000000000000000000000000000000000000000000000000000000000000000000000000000000000000000000040000000000000000000000010000000000000000000008000000000000000000000000000000000000000",
      "type": "0x2",
      "transactionHash": "0xa14d32c106ea5551c0a2af0cfa0786862c71e98c2f9c707e0f3cb1a964212fc1",
      "transactionIndex": "0xa6",
      "blockHash": "0xec68424a2a2c516dd40cbd2476c61756a24fa0a0381cf74c40c78de6fa999cb6",
      "blockNumber": "0x77c625",
      "gasUsed": "0xbf3a",
      "effectiveGasPrice": "0x9de2cb",
      "from": "0x493e5f174b58852c6ac39c98788b8e3548e38cb0",
      "to": "0xbeb5b2b0b87e3ef336235178f29381219b9094a9",
      "contractAddress": null
    },
    {
      "status": "0x1",
      "cumulativeGasUsed": "0x1176a4d",
      "logs": [
        {
          "address": "0xbeb5b2b0b87e3ef336235178f29381219b9094a9",
          "topics": [
            "0x8c5be1e5ebec7d5bd14f71427d1e84f3dd0314c0f7b2291e5b200ac8c7c3b925",
            "0x000000000000000000000000493e5f174b58852c6ac39c98788b8e3548e38cb0",
            "0x000000000000000000000000db3b65116a13aa1ffa7b711d5ae29087f44347ab"
          ],
          "data": "0x0000000000000000000000000000000000000000000000000000000000000000",
          "blockHash": "0xec68424a2a2c516dd40cbd2476c61756a24fa0a0381cf74c40c78de6fa999cb6",
          "blockNumber": "0x77c625",
          "blockTimestamp": "0x67ca73a8",
          "transactionHash": "0xf16db9e290b074af909d2b235d00e6b4396c439a59d876a45dae9a2e87d87fe2",
          "transactionIndex": "0xa7",
          "logIndex": "0xd0",
          "removed": false
        },
        {
          "address": "0xbeb5b2b0b87e3ef336235178f29381219b9094a9",
          "topics": [
            "0xddf252ad1be2c89b69c2b068fc378daa952ba7f163c4a11628f55a4df523b3ef",
            "0x000000000000000000000000493e5f174b58852c6ac39c98788b8e3548e38cb0",
            "0x000000000000000000000000db3b65116a13aa1ffa7b711d5ae29087f44347ab"
          ],
          "data": "0x0000000000000000000000000000000000000000000000000de0b6b3a7640000",
          "blockHash": "0xec68424a2a2c516dd40cbd2476c61756a24fa0a0381cf74c40c78de6fa999cb6",
          "blockNumber": "0x77c625",
          "blockTimestamp": "0x67ca73a8",
          "transactionHash": "0xf16db9e290b074af909d2b235d00e6b4396c439a59d876a45dae9a2e87d87fe2",
          "transactionIndex": "0xa7",
          "logIndex": "0xd1",
          "removed": false
        },
        {
          "address": "0xcc1ae8cf5d3904cef3360a9532b477529b177cce",
          "topics": [
            "0x61ed099e74a97a1d7f8bb0952a88ca8b7b8ebd00c126ea04671f92a81213318a"
          ],
          "data": "0x000000000000000000000000718b92b5cb0a5552039b593faf724d182a881eda0000000000000000000000000000000000000000000000000000505ad4462d95",
          "blockHash": "0xec68424a2a2c516dd40cbd2476c61756a24fa0a0381cf74c40c78de6fa999cb6",
          "blockNumber": "0x77c625",
          "blockTimestamp": "0x67ca73a8",
          "transactionHash": "0xf16db9e290b074af909d2b235d00e6b4396c439a59d876a45dae9a2e87d87fe2",
          "transactionIndex": "0xa7",
          "logIndex": "0xd2",
          "removed": false
        },
        {
          "address": "0xcc1ae8cf5d3904cef3360a9532b477529b177cce",
          "topics": [
            "0x07ea52d82345d6e838192107d8fd7123d9c2ec8e916cd0aad13fd2b60db24644"
          ],
          "data": "0x000000000000000000000000000000000000000000000000000000000000006000000000000000000000000000000000000000000000000000000000000000a000000000000000000000000000000000000000000000000000000000000000c000000000000000000000000000000000000000000000000000000000000000010000000000000000000000008eebf8b423b73bfca51a1db4b7354aa0bfca91930000000000000000000000000000000000000000000000000000000000000000000000000000000000000000000000000000000000000000000000000000000100000000000000000000000000000000000000000000000000000418d86406f3",
          "blockHash": "0xec68424a2a2c516dd40cbd2476c61756a24fa0a0381cf74c40c78de6fa999cb6",
          "blockNumber": "0x77c625",
          "blockTimestamp": "0x67ca73a8",
          "transactionHash": "0xf16db9e290b074af909d2b235d00e6b4396c439a59d876a45dae9a2e87d87fe2",
          "transactionIndex": "0xa7",
          "logIndex": "0xd3",
          "removed": false
        },
        {
          "address": "0x6edce65403992e310a62460808c4b910d972f10f",
          "topics": [
            "0x1ab700d4ced0c005b164c0f789fd09fcbb0156d4c2041b8a3bfbcd961cd1567f"
          ],
          "data": "0x00000000000000000000000000000000000000000000000000000000000000600000000000000000000000000000000000000000000000000000000000000120000000000000000000000000cc1ae8cf5d3904cef3360a9532b477529b177cce000000000000000000000000000000000000000000000000000000000000009901000000000000000100009ce1000000000000000000000000db3b65116a13aa1ffa7b711d5ae29087f44347ab00009d19000000000000000000000000ae650ec03e807e640580540d7c2df615badf7c2240f67c9c28fec7667a482b4340d049ea35e6c641ae6a79b7dcf0b545ba0babe0000000000000000000000000493e5f174b58852c6ac39c98788b8e3548e38cb000000000000f424000000000000000000000000000000000000000000000000000000000000000000000000000001600030100110100000000000000000000000000030d4000000000000000000000",
          "blockHash": "0xec68424a2a2c516dd40cbd2476c61756a24fa0a0381cf74c40c78de6fa999cb6",
          "blockNumber": "0x77c625",
          "blockTimestamp": "0x67ca73a8",
          "transactionHash": "0xf16db9e290b074af909d2b235d00e6b4396c439a59d876a45dae9a2e87d87fe2",
          "transactionIndex": "0xa7",
          "logIndex": "0xd4",
          "removed": false
        },
        {
          "address": "0xdb3b65116a13aa1ffa7b711d5ae29087f44347ab",
          "topics": [
            "0x85496b760a4b7f8d66384b9df21b381f5d1b1e79f229a47aaf4c232edc2fe59a",
            "0x40f67c9c28fec7667a482b4340d049ea35e6c641ae6a79b7dcf0b545ba0babe0",
            "0x000000000000000000000000493e5f174b58852c6ac39c98788b8e3548e38cb0"
          ],
          "data": "0x0000000000000000000000000000000000000000000000000000000000009d190000000000000000000000000000000000000000000000000de0b6b3a76400000000000000000000000000000000000000000000000000000de0b6b3a7640000",
          "blockHash": "0xec68424a2a2c516dd40cbd2476c61756a24fa0a0381cf74c40c78de6fa999cb6",
          "blockNumber": "0x77c625",
          "blockTimestamp": "0x67ca73a8",
          "transactionHash": "0xf16db9e290b074af909d2b235d00e6b4396c439a59d876a45dae9a2e87d87fe2",
          "transactionIndex": "0xa7",
          "logIndex": "0xd5",
          "removed": false
        }
      ],
      "logsBloom": "0x00000000000000000000000000000000000000000000000000100200040100000000000000000000200000010000000000000000000000000000000000200000000002000000000000000008000000000000000200000000000000000000000000000000000000008200000000000000000000008000000004000010000000000000000000000020000000080000800000000000000000000020000000000200820000008000000000100000000000000000000000400000000440000000000000000002000000000000000080000000000000080040000000000000000000000010040000008000000000008000002000000000008000000000000000000020",
      "type": "0x2",
      "transactionHash": "0xf16db9e290b074af909d2b235d00e6b4396c439a59d876a45dae9a2e87d87fe2",
      "transactionIndex": "0xa7",
      "blockHash": "0xec68424a2a2c516dd40cbd2476c61756a24fa0a0381cf74c40c78de6fa999cb6",
      "blockNumber": "0x77c625",
      "gasUsed": "0x430dc",
      "effectiveGasPrice": "0x9de2cb",
      "from": "0x493e5f174b58852c6ac39c98788b8e3548e38cb0",
      "to": "0xdb3b65116a13aa1ffa7b711d5ae29087f44347ab",
      "contractAddress": null
    }
  ],
  "libraries": [],
  "pending": [],
  "returns": {},
  "timestamp": 1741321129,
  "chain": 11155111,
  "commit": null
}