{
  "transactions": [
    {
      "hash": "0x3c814fbb9ae8c1295d5a4f9942c50d1fe13fb3bb508dfd73ffe3e68917823f1f",
      "transactionType": "CALL",
      "contractName": null,
      "contractAddress": "0xfe84eF1F94B4D1fD9f4Deb2ce1E6F881FE4f15eb",
      "function": "setPeer(uint32,bytes32)",
      "arguments": [
        "40161",
        "0x000000000000000000000000244c8fc22f2bc3143ff0af0f595c36d37807f3f5"
      ],
      "transaction": {
        "type": "0x02",
        "from": "0x8235753b562109c0efd4c2da4e4138aed10fa397",
        "to": "0xfe84ef1f94b4d1fd9f4deb2ce1e6f881fe4f15eb",
        "gas": "0x95fc",
        "value": "0x0",
        "data": "0x3400288b0000000000000000000000000000000000000000000000000000000000009ce1000000000000000000000000244c8fc22f2bc3143ff0af0f595c36d37807f3f5",
        "nonce": "0x33",
        "accessList": []
      },
      "additionalContracts": [],
      "isFixedGasLimit": false
    }
  ],
  "receipts": [
    {
      "transactionHash": "0x3c814fbb9ae8c1295d5a4f9942c50d1fe13fb3bb508dfd73ffe3e68917823f1f",
      "transactionIndex": "0x0",
      "blockHash": "0x84fc8f64dd1fcc6a6b03cc568691657e212fd901e3fb53e33a356347f45c2102",
      "blockNumber": "0x3537a6",
      "from": "0x8235753B562109C0efD4C2dA4E4138aed10Fa397",
      "to": "0xfe84eF1F94B4D1fD9f4Deb2ce1E6F881FE4f15eb",
      "cumulativeGasUsed": "0x6c97",
      "gasUsed": "0x6c97",
      "contractAddress": null,
      "logs": [
        {
          "address": "0xfe84eF1F94B4D1fD9f4Deb2ce1E6F881FE4f15eb",
          "topics": [
            "0x238399d427b947898edb290f5ff0f9109849b1c3ba196a42e35f00c50a54b98b"
          ],
          "data": "0x0000000000000000000000000000000000000000000000000000000000009ce1000000000000000000000000244c8fc22f2bc3143ff0af0f595c36d37807f3f5",
          "blockHash": "0x84fc8f64dd1fcc6a6b03cc568691657e212fd901e3fb53e33a356347f45c2102",
          "blockNumber": "0x3537a6",
          "transactionHash": "0x3c814fbb9ae8c1295d5a4f9942c50d1fe13fb3bb508dfd73ffe3e68917823f1f",
          "transactionIndex": "0x0",
          "logIndex": "0x0",
          "removed": false
        }
      ],
      "status": "0x1",
      "logsBloom": "0x00000000000000000000000000000000000000000000000000000000000000000000000000000000000000000000000200000000000000000800000000000000000000000000000000000000000000000000000000000000000000000000000000000000000000000000000000000000000000000000000002000000000000000000000000000000000000000000000000000000000000000000000000000000000000000000000000000000000000000000000000000000000002000000000000000000000000000000000000000000000000000000000000040000000000000000000000000000000000000000000000000000000000400000000000000000",
      "type": "0x2",
      "effectiveGasPrice": "0xb2e75860"
    }
  ],
  "libraries": [],
  "pending": [],
  "returns": {},
  "timestamp": 1741933901,
  "chain": 17000,
  "commit": "d15d00f"
}