{
  "transactions": [
    {
      "hash": "0xd3868bd163bb8cbabf9dfddbf9291779748dd7b52e622241a52a1d8e8fbafb12",
      "transactionType": "CALL",
      "contractName": null,
      "contractAddress": "0xfe84eF1F94B4D1fD9f4Deb2ce1E6F881FE4f15eb",
      "function": "setPeer(uint32,bytes32)",
      "arguments": [
        "40161",
        "0x000000000000000000000000244c8fc22f2bc3143ff0af0f595c36d37807f3f5"
      ],
      "transaction": {
        "type": "0x02",
        "from": "0x8235753b562109c0efd4c2da4e4138aed10fa397",
        "to": "0xfe84ef1f94b4d1fd9f4deb2ce1e6f881fe4f15eb",
        "gas": "0x1107f",
        "value": "0x0",
        "data": "0x3400288b0000000000000000000000000000000000000000000000000000000000009ce1000000000000000000000000244c8fc22f2bc3143ff0af0f595c36d37807f3f5",
        "nonce": "0x2e",
        "accessList": []
      },
      "additionalContracts": [],
      "isFixedGasLimit": false
    },
    {
      "hash": "0x7bb60de94ecd36a3a9a3a55eeeed6c627f564c859b7b62e8a3b58bcc23ec3b53",
      "transactionType": "CALL",
      "contractName": null,
      "contractAddress": "0xfe84eF1F94B4D1fD9f4Deb2ce1E6F881FE4f15eb",
      "function": "mint(address,uint256)",
      "arguments": [
        "0x8235753B562109C0efD4C2dA4E4138aed10Fa397",
        "100000000000000000000"
      ],
      "transaction": {
        "type": "0x02",
        "from": "0x8235753b562109c0efd4c2da4e4138aed10fa397",
        "to": "0xfe84ef1f94b4d1fd9f4deb2ce1e6f881fe4f15eb",
        "gas": "0x19406",
        "value": "0x0",
        "data": "0x40c10f190000000000000000000000008235753b562109c0efd4c2da4e4138aed10fa3970000000000000000000000000000000000000000000000056bc75e2d63100000",
        "nonce": "0x2f",
        "accessList": []
      },
      "additionalContracts": [],
      "isFixedGasLimit": false
    }
  ],
  "receipts": [
    {
      "transactionHash": "0xd3868bd163bb8cbabf9dfddbf9291779748dd7b52e622241a52a1d8e8fbafb12",
      "transactionIndex": "0x0",
      "blockHash": "0xec255f309b7a3d1418380a1d0d1c3ca81575c578a4612e72b63d136e14035a34",
      "blockNumber": "0x35369c",
      "from": "0x8235753B562109C0efD4C2dA4E4138aed10Fa397",
      "to": "0xfe84eF1F94B4D1fD9f4Deb2ce1E6F881FE4f15eb",
      "cumulativeGasUsed": "0xba53",
      "gasUsed": "0xba53",
      "contractAddress": null,
      "logs": [
        {
          "address": "0xfe84eF1F94B4D1fD9f4Deb2ce1E6F881FE4f15eb",
          "topics": [
            "0x238399d427b947898edb290f5ff0f9109849b1c3ba196a42e35f00c50a54b98b"
          ],
          "data": "0x0000000000000000000000000000000000000000000000000000000000009ce1000000000000000000000000244c8fc22f2bc3143ff0af0f595c36d37807f3f5",
          "blockHash": "0xec255f309b7a3d1418380a1d0d1c3ca81575c578a4612e72b63d136e14035a34",
          "blockNumber": "0x35369c",
          "transactionHash": "0xd3868bd163bb8cbabf9dfddbf9291779748dd7b52e622241a52a1d8e8fbafb12",
          "transactionIndex": "0x0",
          "logIndex": "0x0",
          "removed": false
        }
      ],
      "status": "0x1",
      "logsBloom": "0x00000000000000000000000000000000000000000000000000000000000000000000000000000000000000000000000200000000000000000800000000000000000000000000000000000000000000000000000000000000000000000000000000000000000000000000000000000000000000000000000002000000000000000000000000000000000000000000000000000000000000000000000000000000000000000000000000000000000000000000000000000000000002000000000000000000000000000000000000000000000000000000000000040000000000000000000000000000000000000000000000000000000000400000000000000000",
      "type": "0x2",
      "effectiveGasPrice": "0xb2e8cf93"
    },
    {
      "transactionHash": "0x7bb60de94ecd36a3a9a3a55eeeed6c627f564c859b7b62e8a3b58bcc23ec3b53",
      "transactionIndex": "0x1",
      "blockHash": "0xec255f309b7a3d1418380a1d0d1c3ca81575c578a4612e72b63d136e14035a34",
      "blockNumber": "0x35369c",
      "from": "0x8235753B562109C0efD4C2dA4E4138aed10Fa397",
      "to": "0xfe84eF1F94B4D1fD9f4Deb2ce1E6F881FE4f15eb",
      "cumulativeGasUsed": "0x1ce95",
      "gasUsed": "0x11442",
      "contractAddress": null,
      "logs": [
        {
          "address": "0xfe84eF1F94B4D1fD9f4Deb2ce1E6F881FE4f15eb",
          "topics": [
            "0xddf252ad1be2c89b69c2b068fc378daa952ba7f163c4a11628f55a4df523b3ef",
            "0x0000000000000000000000000000000000000000000000000000000000000000",
            "0x0000000000000000000000008235753b562109c0efd4c2da4e4138aed10fa397"
          ],
          "data": "0x0000000000000000000000000000000000000000000000056bc75e2d63100000",
          "blockHash": "0xec255f309b7a3d1418380a1d0d1c3ca81575c578a4612e72b63d136e14035a34",
          "blockNumber": "0x35369c",
          "transactionHash": "0x7bb60de94ecd36a3a9a3a55eeeed6c627f564c859b7b62e8a3b58bcc23ec3b53",
          "transactionIndex": "0x1",
          "logIndex": "0x1",
          "removed": false
        }
      ],
      "status": "0x1",
      "logsBloom": "0x0000000000000000000000000000000000000000000000000000000000000000000000000000000000000000000000020000000000000000000000000000000000000000000000000000000800000000000000000000000000000000000000000000000002000000000000000000080000000000000000000200001000000000000000000000000000000000000000000000000000000008000000000000000000000000000000000000000000000000000000000000001000000000000000000000000a000000000000000000000000000000000000000000000000000020000000000000000000000000000000000000000000000000400000000000000000",
      "type": "0x2",
      "effectiveGasPrice": "0xb2e8cf93"
    }
  ],
  "libraries": [],
  "pending": [],
  "returns": {},
  "timestamp": 1741929786,
  "chain": 17000,
  "commit": "5eceab0"
}