{
  "transactions": [
    {
      "hash": "0xdb4f5c8f487aceb9e338e7c0edc3b884316ac6397db7fe2d8d5dc43c1d1e9ddb",
      "transactionType": "CALL",
      "contractName": null,
      "contractAddress": "0x3229F04130Fb9D7c735a6816694A34943F97A467",
      "function": "setPeer(uint32,bytes32)",
      "arguments": [
        "40161",
        "0x000000000000000000000000244c8fc22f2bc3143ff0af0f595c36d37807f3f5"
      ],
      "transaction": {
        "type": "0x00",
        "from": "0x8235753b562109c0efd4c2da4e4138aed10fa397",
        "to": "0x3229f04130fb9d7c735a6816694a34943f97a467",
        "gas": "0xa518",
        "value": "0x0",
        "data": "0x3400288b0000000000000000000000000000000000000000000000000000000000009ce1000000000000000000000000244c8fc22f2bc3143ff0af0f595c36d37807f3f5",
        "nonce": "0x2"
      },
      "additionalContracts": [],
      "isFixedGasLimit": false
    }
  ],
  "receipts": [
    {
      "transactionHash": "0xdb4f5c8f487aceb9e338e7c0edc3b884316ac6397db7fe2d8d5dc43c1d1e9ddb",
      "transactionIndex": "0x2",
      "blockHash": "0xfc0dd704cded039c0f5b2038d93545e79aec88c18995bfaaa29e1c6629a90949",
      "blockNumber": "0x2ecc84e",
      "from": "0x8235753B562109C0efD4C2dA4E4138aed10Fa397",
      "to": "0x3229F04130Fb9D7c735a6816694A34943F97A467",
      "cumulativeGasUsed": "0x234b6e",
      "gasUsed": "0x7787",
      "contractAddress": null,
      "logs": [
        {
          "address": "0x3229F04130Fb9D7c735a6816694A34943F97A467",
          "topics": [
            "0x238399d427b947898edb290f5ff0f9109849b1c3ba196a42e35f00c50a54b98b"
          ],
          "data": "0x0000000000000000000000000000000000000000000000000000000000009ce1000000000000000000000000244c8fc22f2bc3143ff0af0f595c36d37807f3f5",
          "blockHash": "0xfc0dd704cded039c0f5b2038d93545e79aec88c18995bfaaa29e1c6629a90949",
          "blockNumber": "0x2ecc84e",
          "transactionHash": "0xdb4f5c8f487aceb9e338e7c0edc3b884316ac6397db7fe2d8d5dc43c1d1e9ddb",
          "transactionIndex": "0x2",
          "logIndex": "0x1",
          "removed": false
        }
      ],
      "status": "0x1",
      "logsBloom": "0x00000000000000000000000000000000000000000000000000000000000000000000000000000000000000000000000000000000000000000800000000000000000000000000000000000000000000000000000000000000000000000000010000000000000000000000000000000000000000000000000000000000000000000000000000000000000000000000000000000000000000000000000000000000000000000000000000000000000000000000000000000000000002400000000000000000000000000000000000000000000000000000000000040000000000000000000000000000000000000000000000000000000800000000000000000000",
      "type": "0x0",
      "effectiveGasPrice": "0x3b9aca00"
    }
  ],
  "libraries": [],
  "pending": [],
  "returns": {},
  "timestamp": 1741939639,
  "chain": 97,
  "commit": "d15d00f"
}