{
  "transactions": [
    {
      "hash": "0x7166090154e678dff0bb9e67a7c0ff530f88efbe228d9b8e8a856983c3863cb3",
      "transactionType": "CALL",
      "contractName": null,
      "contractAddress": "0x3229F04130Fb9D7c735a6816694A34943F97A467",
      "function": "setPeer(uint32,bytes32)",
      "arguments": [
        "40161",
        "0x000000000000000000000000c6310487e252976dfc68bbfb89de769f3716d99f"
      ],
      "transaction": {
        "type": "0x00",
        "from": "0x8235753b562109c0efd4c2da4e4138aed10fa397",
        "to": "0x3229f04130fb9d7c735a6816694a34943f97a467",
        "gas": "0x1107f",
        "value": "0x0",
        "data": "0x3400288b0000000000000000000000000000000000000000000000000000000000009ce1000000000000000000000000c6310487e252976dfc68bbfb89de769f3716d99f",
        "nonce": "0x1"
      },
      "additionalContracts": [],
      "isFixedGasLimit": false
    }
  ],
  "receipts": [
    {
      "transactionHash": "0x7166090154e678dff0bb9e67a7c0ff530f88efbe228d9b8e8a856983c3863cb3",
      "transactionIndex": "0x4",
      "blockHash": "0xd41faf01fbb825c7be7c613ed8693dfc4d7d4e344c26ad4b541c56ab324da060",
      "blockNumber": "0x2ec6edc",
      "from": "0x8235753B562109C0efD4C2dA4E4138aed10Fa397",
      "to": "0x3229F04130Fb9D7c735a6816694A34943F97A467",
      "cumulativeGasUsed": "0xa6912",
      "gasUsed": "0xba53",
      "contractAddress": null,
      "logs": [
        {
          "address": "0x3229F04130Fb9D7c735a6816694A34943F97A467",
          "topics": [
            "0x238399d427b947898edb290f5ff0f9109849b1c3ba196a42e35f00c50a54b98b"
          ],
          "data": "0x0000000000000000000000000000000000000000000000000000000000009ce1000000000000000000000000c6310487e252976dfc68bbfb89de769f3716d99f",
          "blockHash": "0xd41faf01fbb825c7be7c613ed8693dfc4d7d4e344c26ad4b541c56ab324da060",
          "blockNumber": "0x2ec6edc",
          "transactionHash": "0x7166090154e678dff0bb9e67a7c0ff530f88efbe228d9b8e8a856983c3863cb3",
          "transactionIndex": "0x4",
          "logIndex": "0x7",
          "removed": false
        }
      ],
      "status": "0x1",
      "logsBloom": "0x00000000000000000000000000000000000000000000000000000000000000000000000000000000000000000000000000000000000000000800000000000000000000000000000000000000000000000000000000000000000000000000010000000000000000000000000000000000000000000000000000000000000000000000000000000000000000000000000000000000000000000000000000000000000000000000000000000000000000000000000000000000000002400000000000000000000000000000000000000000000000000000000000040000000000000000000000000000000000000000000000000000000800000000000000000000",
      "type": "0x0",
      "effectiveGasPrice": "0x3b9aca00"
    }
  ],
  "libraries": [],
  "pending": [],
  "returns": {},
  "timestamp": 1741870947,
  "chain": 97,
  "commit": "5eceab0"
}