{
  "transactions": [
    {
      "hash": "0x2f0f2a6bbd5318aeb6c23bab58e323401c176a0144824defb3f5116424d21fe2",
      "transactionType": "CALL",
      "contractName": null,
      "contractAddress": "0x244C8Fc22f2Bc3143Ff0aF0F595C36d37807F3F5",
      "function": "setPeer(uint32,bytes32)",
      "arguments": [
        "40217",
        "0x000000000000000000000000fe84ef1f94b4d1fd9f4deb2ce1e6f881fe4f15eb"
      ],
      "transaction": {
        "type": "0x02",
        "from": "0x8235753b562109c0efd4c2da4e4138aed10fa397",
        "to": "0x244c8fc22f2bc3143ff0af0f595c36d37807f3f5",
        "gas": "0x1107f",
        "value": "0x0",
        "data": "0x3400288b0000000000000000000000000000000000000000000000000000000000009d19000000000000000000000000fe84ef1f94b4d1fd9f4deb2ce1e6f881fe4f15eb",
        "nonce": "0x10d",
        "accessList": []
      },
      "additionalContracts": [],
      "isFixedGasLimit": false
    }
  ],
  "receipts": [
    {
      "transactionHash": "0x2f0f2a6bbd5318aeb6c23bab58e323401c176a0144824defb3f5116424d21fe2",
      "transactionIndex": "0x3",
      "blockHash": "0x0732ba17922747fa8f5b28bd42891a43bc4dd3353e46fe8b031287c0c35b19ef",
      "blockNumber": "0x7885a5",
      "from": "0x8235753B562109C0efD4C2dA4E4138aed10Fa397",
      "to": "0x244C8Fc22f2Bc3143Ff0aF0F595C36d37807F3F5",
      "cumulativeGasUsed": "0x87bbe",
      "gasUsed": "0xba53",
      "contractAddress": null,
      "logs": [
        {
          "address": "0x244C8Fc22f2Bc3143Ff0aF0F595C36d37807F3F5",
          "topics": [
            "0x238399d427b947898edb290f5ff0f9109849b1c3ba196a42e35f00c50a54b98b"
          ],
          "data": "0x0000000000000000000000000000000000000000000000000000000000009d19000000000000000000000000fe84ef1f94b4d1fd9f4deb2ce1e6f881fe4f15eb",
          "blockHash": "0x0732ba17922747fa8f5b28bd42891a43bc4dd3353e46fe8b031287c0c35b19ef",
          "blockNumber": "0x7885a5",
          "transactionHash": "0x2f0f2a6bbd5318aeb6c23bab58e323401c176a0144824defb3f5116424d21fe2",
          "transactionIndex": "0x3",
          "logIndex": "0x0",
          "removed": false
        }
      ],
      "status": "0x1",
      "logsBloom": "0x00000000000000000000000000000000000000000000000000000000000000000000000000000000000000000000000000000000000000000800000000000000000000000000000000000000000000000000000000000000000000000000000000000000000200000000000000000100000000000000000000000000000000000000000000000000000000000000000000000000000000000000000000000000000000000000000000000000000000000000000000000000000002000000000000000000000000000000000000000000000000000000000000060000000000000000000000000000000000000000000000000000000000000000000000000000",
      "type": "0x2",
      "effectiveGasPrice": "0xb2e58520"
    }
  ],
  "libraries": [],
  "pending": [],
  "returns": {},
  "timestamp": 1741929857,
  "chain": 11155111,
  "commit": "5eceab0"
}