{
  "transactions": [
    {
      "hash": "0x11ae0172ddd111b13dc5a19e933beb67c6c3aca5bb281e83ee59a614bdbcea44",
      "transactionType": "CALL",
      "contractName": null,
      "contractAddress": "0x244C8Fc22f2Bc3143Ff0aF0F595C36d37807F3F5",
      "function": "setPeer(uint32,bytes32)",
      "arguments": [
        "40217",
        "0x000000000000000000000000fe84ef1f94b4d1fd9f4deb2ce1e6f881fe4f15eb"
      ],
      "transaction": {
        "type": "0x02",
        "from": "0x8235753b562109c0efd4c2da4e4138aed10fa397",
        "to": "0x244c8fc22f2bc3143ff0af0f595c36d37807f3f5",
        "gas": "0x95fc",
        "value": "0x0",
        "data": "0x3400288b0000000000000000000000000000000000000000000000000000000000009d19000000000000000000000000fe84ef1f94b4d1fd9f4deb2ce1e6f881fe4f15eb",
        "nonce": "0x110",
        "accessList": []
      },
      "additionalContracts": [],
      "isFixedGasLimit": false
    },
    {
      "hash": "0x3b372c6969f227acef8289b2bdfac1b31ee7a6091cadabd0e1e1f0c2c89951d3",
      "transactionType": "CALL",
      "contractName": null,
      "contractAddress": "0x244C8Fc22f2Bc3143Ff0aF0F595C36d37807F3F5",
      "function": "mint(address,uint256)",
      "arguments": [
        "0x8235753B562109C0efD4C2dA4E4138aed10Fa397",
        "1000000000000000000"
      ],
      "transaction": {
        "type": "0x02",
        "from": "0x8235753b562109c0efd4c2da4e4138aed10fa397",
        "to": "0x244c8fc22f2bc3143ff0af0f595c36d37807f3f5",
        "gas": "0x17d83",
        "value": "0x0",
        "data": "0x40c10f190000000000000000000000008235753b562109c0efd4c2da4e4138aed10fa3970000000000000000000000000000000000000000000000000de0b6b3a7640000",
        "nonce": "0x111",
        "accessList": []
      },
      "additionalContracts": [],
      "isFixedGasLimit": false
    }
  ],
  "receipts": [
    {
      "transactionHash": "0x11ae0172ddd111b13dc5a19e933beb67c6c3aca5bb281e83ee59a614bdbcea44",
      "transactionIndex": "0x4",
      "blockHash": "0x814ed626516d56447b188c950ae47371e5759147288f53adae19b6d5631cc253",
      "blockNumber": "0x788722",
      "from": "0x8235753B562109C0efD4C2dA4E4138aed10Fa397",
      "to": "0x244C8Fc22f2Bc3143Ff0aF0F595C36d37807F3F5",
      "cumulativeGasUsed": "0x9eecd",
      "gasUsed": "0x6c97",
      "contractAddress": null,
      "logs": [
        {
          "address": "0x244C8Fc22f2Bc3143Ff0aF0F595C36d37807F3F5",
          "topics": [
            "0x238399d427b947898edb290f5ff0f9109849b1c3ba196a42e35f00c50a54b98b"
          ],
          "data": "0x0000000000000000000000000000000000000000000000000000000000009d19000000000000000000000000fe84ef1f94b4d1fd9f4deb2ce1e6f881fe4f15eb",
          "blockHash": "0x814ed626516d56447b188c950ae47371e5759147288f53adae19b6d5631cc253",
          "blockNumber": "0x788722",
          "transactionHash": "0x11ae0172ddd111b13dc5a19e933beb67c6c3aca5bb281e83ee59a614bdbcea44",
          "transactionIndex": "0x4",
          "logIndex": "0x13",
          "removed": false
        }
      ],
      "status": "0x1",
      "logsBloom": "0x00000000000000000000000000000000000000000000000000000000000000000000000000000000000000000000000000000000000000000800000000000000000000000000000000000000000000000000000000000000000000000000000000000000000200000000000000000100000000000000000000000000000000000000000000000000000000000000000000000000000000000000000000000000000000000000000000000000000000000000000000000000000002000000000000000000000000000000000000000000000000000000000000060000000000000000000000000000000000000000000000000000000000000000000000000000",
      "type": "0x2",
      "effectiveGasPrice": "0xb5920d04"
    },
    {
      "transactionHash": "0x3b372c6969f227acef8289b2bdfac1b31ee7a6091cadabd0e1e1f0c2c89951d3",
      "transactionIndex": "0x5",
      "blockHash": "0x814ed626516d56447b188c950ae47371e5759147288f53adae19b6d5631cc253",
      "blockNumber": "0x788722",
      "from": "0x8235753B562109C0efD4C2dA4E4138aed10Fa397",
      "to": "0x244C8Fc22f2Bc3143Ff0aF0F595C36d37807F3F5",
      "cumulativeGasUsed": "0xb0303",
      "gasUsed": "0x11436",
      "contractAddress": null,
      "logs": [
        {
          "address": "0x244C8Fc22f2Bc3143Ff0aF0F595C36d37807F3F5",
          "topics": [
            "0xddf252ad1be2c89b69c2b068fc378daa952ba7f163c4a11628f55a4df523b3ef",
            "0x0000000000000000000000000000000000000000000000000000000000000000",
            "0x0000000000000000000000008235753b562109c0efd4c2da4e4138aed10fa397"
          ],
          "data": "0x0000000000000000000000000000000000000000000000000de0b6b3a7640000",
          "blockHash": "0x814ed626516d56447b188c950ae47371e5759147288f53adae19b6d5631cc253",
          "blockNumber": "0x788722",
          "transactionHash": "0x3b372c6969f227acef8289b2bdfac1b31ee7a6091cadabd0e1e1f0c2c89951d3",
          "transactionIndex": "0x5",
          "logIndex": "0x14",
          "removed": false
        }
      ],
      "status": "0x1",
      "logsBloom": "0x0000000000000000000000000000000000000000000000000000000000000000000000000000000000000000000000000000000000000000000000000000000000000000000000000000000800000000000000000000000000000000000000000000000002020000000000000000090000000000000000000000001000000000000000000000000000000000000000000000000000000008000000000000000000000000000000000000000000000000000000000000001000000000000000000000000a000000000000000000000000000000000000000000020000000020000000000000000000000000000000000000000000000000000000000000000000",
      "type": "0x2",
      "effectiveGasPrice": "0xb5920d04"
    }
  ],
  "libraries": [],
  "pending": [],
  "returns": {},
  "timestamp": 1741934751,
  "chain": 11155111,
  "commit": "d15d00f"
}