{
  "transactions": [
    {
      "hash": "0x2c4261f98de9d5352aefe299ed18f845ea143d54a70fa6c6e678f9a148067076",
      "transactionType": "CALL",
      "contractName": null,
      "contractAddress": "0xC6310487e252976DFC68bbFB89De769f3716d99f",
      "function": "setPeer(uint32,bytes32)",
      "arguments": [
        "40102",
        "0x0000000000000000000000003229f04130fb9d7c735a6816694a34943f97a467"
      ],
      "transaction": {
        "type": "0x02",
        "from": "0x8235753b562109c0efd4c2da4e4138aed10fa397",
        "to": "0xc6310487e252976dfc68bbfb89de769f3716d99f",
        "gas": "0x1107f",
        "value": "0x0",
        "data": "0x3400288b0000000000000000000000000000000000000000000000000000000000009ca60000000000000000000000003229f04130fb9d7c735a6816694a34943f97a467",
        "nonce": "0x109",
        "accessList": []
      },
      "additionalContracts": [],
      "isFixedGasLimit": false
    }
  ],
  "receipts": [
    {
      "transactionHash": "0x2c4261f98de9d5352aefe299ed18f845ea143d54a70fa6c6e678f9a148067076",
      "transactionIndex": "0x2d",
      "blockHash": "0x9042f7e09e7c216b7634278f0e1f1736a598a9589e7c1c829283c3c082b40aab",
      "blockNumber": "0x7873e1",
      "from": "0x8235753B562109C0efD4C2dA4E4138aed10Fa397",
      "to": "0xC6310487e252976DFC68bbFB89De769f3716d99f",
      "cumulativeGasUsed": "0x4d1efd",
      "gasUsed": "0xba53",
      "contractAddress": null,
      "logs": [
        {
          "address": "0xC6310487e252976DFC68bbFB89De769f3716d99f",
          "topics": [
            "0x238399d427b947898edb290f5ff0f9109849b1c3ba196a42e35f00c50a54b98b"
          ],
          "data": "0x0000000000000000000000000000000000000000000000000000000000009ca60000000000000000000000003229f04130fb9d7c735a6816694a34943f97a467",
          "blockHash": "0x9042f7e09e7c216b7634278f0e1f1736a598a9589e7c1c829283c3c082b40aab",
          "blockNumber": "0x7873e1",
          "transactionHash": "0x2c4261f98de9d5352aefe299ed18f845ea143d54a70fa6c6e678f9a148067076",
          "transactionIndex": "0x2d",
          "logIndex": "0x60",
          "removed": false
        }
      ],
      "status": "0x1",
      "logsBloom": "0x00000000000000000000000000000000000000000000000000000000000000000000000000000000000000000000000000000000000000000800000000000000000000000000000000000000000000000000000000000000000000000000000000000000000000000000000000000000000000000000000000000000000000000000000000000000000000000200000000000000000000000000000000000000000000000000000000000000002000000000000000800000000002000000000000000000000000000000000000000000000000000000000000040000000000000000000000000000000000000000000000000000000000000000000000000000",
      "type": "0x2",
      "effectiveGasPrice": "0xa5202840d"
    }
  ],
  "libraries": [],
  "pending": [],
  "returns": {},
  "timestamp": 1741871836,
  "chain": 11155111,
  "commit": "5eceab0"
}