{
  "transactions": [
    {
      "hash": "0x21e0cc0d90e986fdafdc24cfe3e7ece33c683cf8fd11417624321202cccd0c16",
      "transactionType": "CALL",
      "contractName": null,
      "contractAddress": "0x244C8Fc22f2Bc3143Ff0aF0F595C36d37807F3F5",
      "function": "setPeer(uint32,bytes32)",
      "arguments": [
        "40102",
        "0x0000000000000000000000003229f04130fb9d7c735a6816694a34943f97a467"
      ],
      "transaction": {
        "type": "0x02",
        "from": "0x8235753b562109c0efd4c2da4e4138aed10fa397",
        "to": "0x244c8fc22f2bc3143ff0af0f595c36d37807f3f5",
        "gas": "0x1107f",
        "value": "0x0",
        "data": "0x3400288b0000000000000000000000000000000000000000000000000000000000009ca60000000000000000000000003229f04130fb9d7c735a6816694a34943f97a467",
        "nonce": "0x112",
        "accessList": []
      },
      "additionalContracts": [],
      "isFixedGasLimit": false
    }
  ],
  "receipts": [
    {
      "transactionHash": "0x21e0cc0d90e986fdafdc24cfe3e7ece33c683cf8fd11417624321202cccd0c16",
      "transactionIndex": "0x45",
      "blockHash": "0xc3b9c58d24adf13c710a94fbe4c19d0fae5e8757dbfe127bb7fa16a2756de0df",
      "blockNumber": "0x7888a0",
      "from": "0x8235753B562109C0efD4C2dA4E4138aed10Fa397",
      "to": "0x244C8Fc22f2Bc3143Ff0aF0F595C36d37807F3F5",
      "cumulativeGasUsed": "0xd87830",
      "gasUsed": "0xba53",
      "contractAddress": null,
      "logs": [
        {
          "address": "0x244C8Fc22f2Bc3143Ff0aF0F595C36d37807F3F5",
          "topics": [
            "0x238399d427b947898edb290f5ff0f9109849b1c3ba196a42e35f00c50a54b98b"
          ],
          "data": "0x0000000000000000000000000000000000000000000000000000000000009ca60000000000000000000000003229f04130fb9d7c735a6816694a34943f97a467",
          "blockHash": "0xc3b9c58d24adf13c710a94fbe4c19d0fae5e8757dbfe127bb7fa16a2756de0df",
          "blockNumber": "0x7888a0",
          "transactionHash": "0x21e0cc0d90e986fdafdc24cfe3e7ece33c683cf8fd11417624321202cccd0c16",
          "transactionIndex": "0x45",
          "logIndex": "0xa3",
          "removed": false
        }
      ],
      "status": "0x1",
      "logsBloom": "0x00000000000000000000000000000000000000000000000000000000000000000000000000000000000000000000000000000000000000000800000000000000000000000000000000000000000000000000000000000000000000000000000000000000000200000000000000000100000000000000000000000000000000000000000000000000000000000000000000000000000000000000000000000000000000000000000000000000000000000000000000000000000002000000000000000000000000000000000000000000000000000000000000060000000000000000000000000000000000000000000000000000000000000000000000000000",
      "type": "0x2",
      "effectiveGasPrice": "0xba904a06"
    }
  ],
  "libraries": [],
  "pending": [],
  "returns": {},
  "timestamp": 1741939587,
  "chain": 11155111,
  "commit": "d15d00f"
}