{
  "transactions": [
    {
      "hash": "0x756230d38c2327af71147a903b8dd346d058bb021aae7130db122b6c495c8637",
      "transactionType": "CALL",
      "contractName": null,
      "contractAddress": "0x244C8Fc22f2Bc3143Ff0aF0F595C36d37807F3F5",
      "function": "send((uint32,bytes32,uint256,uint256,bytes,bytes,bytes),(uint256,uint256),address)",
      "arguments": [
        "(40102, 0x0000000000000000000000008235753b562109c0efd4c2da4e4138aed10fa397, 1000000000000000000, 900000000000000000, 0x00030100110100000000000000000000000000030d40, 0x, 0x)",
        "(250492513151796, 0)",
        "0x8235753B562109C0efD4C2dA4E4138aed10Fa397"
      ],
      "transaction": {
        "type": "0x02",
        "from": "0x8235753b562109c0efd4c2da4e4138aed10fa397",
        "to": "0x244c8fc22f2bc3143ff0af0f595c36d37807f3f5",
        "gas": "0x4c637",
        "value": "0xe3d25543eb34",
        "data": "0xc7c7f5b300000000000000000000000000000000000000000000000000000000000000800000000000000000000000000000000000000000000000000000e3d25543eb3400000000000000000000000000000000000000000000000000000000000000000000000000000000000000008235753b562109c0efd4c2da4e4138aed10fa3970000000000000000000000000000000000000000000000000000000000009ca60000000000000000000000008235753b562109c0efd4c2da4e4138aed10fa3970000000000000000000000000000000000000000000000000de0b6b3a76400000000000000000000000000000000000000000000000000000c7d713b49da000000000000000000000000000000000000000000000000000000000000000000e000000000000000000000000000000000000000000000000000000000000001200000000000000000000000000000000000000000000000000000000000000140000000000000000000000000000000000000000000000000000000000000001600030100110100000000000000000000000000030d400000000000000000000000000000000000000000000000000000000000000000000000000000000000000000000000000000000000000000000000000000000000000000000000000000",
        "nonce": "0x118",
        "accessList": []
      },
      "additionalContracts": [],
      "isFixedGasLimit": false
    }
  ],
  "receipts": [
    {
      "transactionHash": "0x756230d38c2327af71147a903b8dd346d058bb021aae7130db122b6c495c8637",
      "transactionIndex": "0x5",
      "blockHash": "0x92a63282b000e11126e6c278787357287407931a657f86af3e40a1cfaa53f887",
      "blockNumber": "0x7889fd",
      "from": "0x8235753B562109C0efD4C2dA4E4138aed10Fa397",
      "to": "0x244C8Fc22f2Bc3143Ff0aF0F595C36d37807F3F5",
      "cumulativeGasUsed": "0x6bd2e",
      "gasUsed": "0x374de",
      "contractAddress": null,
      "logs": [
        {
          "address": "0x244C8Fc22f2Bc3143Ff0aF0F595C36d37807F3F5",
          "topics": [
            "0xddf252ad1be2c89b69c2b068fc378daa952ba7f163c4a11628f55a4df523b3ef",
            "0x0000000000000000000000008235753b562109c0efd4c2da4e4138aed10fa397",
            "0x0000000000000000000000000000000000000000000000000000000000000000"
          ],
          "data": "0x0000000000000000000000000000000000000000000000000de0b6b3a7640000",
          "blockHash": "0x92a63282b000e11126e6c278787357287407931a657f86af3e40a1cfaa53f887",
          "blockNumber": "0x7889fd",
          "transactionHash": "0x756230d38c2327af71147a903b8dd346d058bb021aae7130db122b6c495c8637",
          "transactionIndex": "0x5",
          "logIndex": "0x4",
          "removed": false
        },
        {
          "address": "0xcc1ae8Cf5D3904Cef3360A9532B477529b177cCE",
          "topics": [
            "0x61ed099e74a97a1d7f8bb0952a88ca8b7b8ebd00c126ea04671f92a81213318a"
          ],
          "data": "0x000000000000000000000000718b92b5cb0a5552039b593faf724d182a881eda0000000000000000000000000000000000000000000000000000e1337cb0c814",
          "blockHash": "0x92a63282b000e11126e6c278787357287407931a657f86af3e40a1cfaa53f887",
          "blockNumber": "0x7889fd",
          "transactionHash": "0x756230d38c2327af71147a903b8dd346d058bb021aae7130db122b6c495c8637",
          "transactionIndex": "0x5",
          "logIndex": "0x5",
          "removed": false
        },
        {
          "address": "0xcc1ae8Cf5D3904Cef3360A9532B477529b177cCE",
          "topics": [
            "0x07ea52d82345d6e838192107d8fd7123d9c2ec8e916cd0aad13fd2b60db24644"
          ],
          "data": "0x000000000000000000000000000000000000000000000000000000000000006000000000000000000000000000000000000000000000000000000000000000a000000000000000000000000000000000000000000000000000000000000000c000000000000000000000000000000000000000000000000000000000000000010000000000000000000000004f675c48fad936cb4c3ca07d7cbf421ceeae0c75000000000000000000000000000000000000000000000000000000000000000000000000000000000000000000000000000000000000000000000000000000010000000000000000000000000000000000000000000000000000029ed8932320",
          "blockHash": "0x92a63282b000e11126e6c278787357287407931a657f86af3e40a1cfaa53f887",
          "blockNumber": "0x7889fd",
          "transactionHash": "0x756230d38c2327af71147a903b8dd346d058bb021aae7130db122b6c495c8637",
          "transactionIndex": "0x5",
          "logIndex": "0x6",
          "removed": false
        },
        {
          "address": "0x6EDCE65403992e310A62460808c4b910D972f10f",
          "topics": [
            "0x1ab700d4ced0c005b164c0f789fd09fcbb0156d4c2041b8a3bfbcd961cd1567f"
          ],
          "data": "0x00000000000000000000000000000000000000000000000000000000000000600000000000000000000000000000000000000000000000000000000000000120000000000000000000000000cc1ae8cf5d3904cef3360a9532b477529b177cce000000000000000000000000000000000000000000000000000000000000009901000000000000000400009ce1000000000000000000000000244c8fc22f2bc3143ff0af0f595c36d37807f3f500009ca60000000000000000000000003229f04130fb9d7c735a6816694a34943f97a467e923ef329efd57c380058affd9924b91847603854c2de136cb9430b969857b6d0000000000000000000000008235753b562109c0efd4c2da4e4138aed10fa39700000000000f424000000000000000000000000000000000000000000000000000000000000000000000000000001600030100110100000000000000000000000000030d4000000000000000000000",
          "blockHash": "0x92a63282b000e11126e6c278787357287407931a657f86af3e40a1cfaa53f887",
          "blockNumber": "0x7889fd",
          "transactionHash": "0x756230d38c2327af71147a903b8dd346d058bb021aae7130db122b6c495c8637",
          "transactionIndex": "0x5",
          "logIndex": "0x7",
          "removed": false
        },
        {
          "address": "0x244C8Fc22f2Bc3143Ff0aF0F595C36d37807F3F5",
          "topics": [
            "0x85496b760a4b7f8d66384b9df21b381f5d1b1e79f229a47aaf4c232edc2fe59a",
            "0xe923ef329efd57c380058affd9924b91847603854c2de136cb9430b969857b6d",
            "0x0000000000000000000000008235753b562109c0efd4c2da4e4138aed10fa397"
          ],
          "data": "0x0000000000000000000000000000000000000000000000000000000000009ca60000000000000000000000000000000000000000000000000de0b6b3a76400000000000000000000000000000000000000000000000000000de0b6b3a7640000",
          "blockHash": "0x92a63282b000e11126e6c278787357287407931a657f86af3e40a1cfaa53f887",
          "blockNumber": "0x7889fd",
          "transactionHash": "0x756230d38c2327af71147a903b8dd346d058bb021aae7130db122b6c495c8637",
          "transactionIndex": "0x5",
          "logIndex": "0x8",
          "removed": false
        }
      ],
      "status": "0x1",
      "logsBloom": "0x0000000000000000000000000000000000000000000000000000000000010000000000000000000020000000000000000000000000000000000000000000200000000200000000000000000800000000000010000000000000000000000000000000000002020000820000000000090000000000000000000000001000000000000000000000002000000008000040000000000000000008000000000000000000000000800000000010000000000000000000000040001000044000000000000000000a000000000000000080000000000000080000000000020000000020000000040000000000000000000000002000000000008000000000000000000020",
      "type": "0x2",
      "effectiveGasPrice": "0x21e556b3e"
    }
  ],
  "libraries": [],
  "pending": [],
  "returns": {},
  "timestamp": 1741943933,
  "chain": 11155111,
  "commit": "d15d00f"
}